S01400004C61626F7261746F72696F342E737265635E
S11300000C9434000C9451000C9451000C94510045
S11300100C94E8000C9451000C9451000C94510081
S11300200C9451000C9451000C9451000C94510008
S11300300C9451000C9451000C9451000C945100F8
S11300400C9402010C9451000C9451000C94510036
S11300500C9451000C9451000C9451000C945100D8
S11300600C9451000C94510011241FBECFEFD8E022
S1130070DEBFCDBF11E0A0E0B1E0E2E4F2E002C0F7
S113008005900D92A231B107D9F721E0A2E1B1E0C8
S113009001C01D92A631B207E1F70E9492000C94B0
S11300A01F010C940000EAE7F0E080818064808303
S11300B080917A0086FDFCCF809179000895F894B0
S11300C09FEF94B987B18F7C87B988B1806388B971
S11300D09AB9ECE6F0E0808180638083E8E6F0E0A2
S11300E080818260808314BC83E085BD83E886BD03
S11300F081E080936E0087E680937C0087E880939C
S11301007A00789408952091150130E080911201CD
S11301109091130199272817390718F485B188603D
S113012085B908950E945F000E945300282F809390
S113013014014091120150911301CA01880F991FB3
S1130140880F991F880F991F841B950B820F911D8F
S1130150969587959695879596958795909313018F
S11301608093120115B880911001813069F4E091F7
S11301701201F0911301EF70FF27E050FF4F8081CF
S11301808BB985B1816085B980911001823099F471
S1130190E0911201F0911301E07FFF27F295E295BF
S11301A0EF70EF27FF70EF27E050FF4F80818BB98E
S11301B085B1826085B980911001843031F48091D9
S11301C015018BB985B1846085B90E948300ACCFD9
S11301D01F920F920FB60F9211248F93349905C07A
S11301E0809115018F5F80931501359905C0809129
S11301F015018150809315018F910F900FBE0F90C0
S11302001F9018951F920F920FB60F9211248F937F
S113021080911001813021F482E08093100109C0A3
S1130220823021F484E08093100103C081E0809344
S113023010018F910F900FBE0F901F901895F89496
S1050240FFCFEA
S11302424079243019120278001008034621060E60
S10502520100A5
S9030000FC
