S01400004C61626F7261746F72696F342E737265635E
S11300000C9434000C9451000C9451000C94510045
S11300100C94C7000C9451000C9451000C945100A2
S11300200C9451000C9451000C9451000C94510008
S11300300C9451000C9451000C9451000C945100F8
S11300400C94E1000C9451000C9451000C94510058
S11300500C9451000C9451000C9451000C945100D8
S11300600C9451000C94510011241FBECFEFD8E022
S1130070DEBFCDBF11E0A0E0B1E0E0EFF1E002C0EF
S113008005900D92A031B107D9F721E0A0E1B1E0CC
S113009001C01D92A331B207E1F70E94A0000C94A5
S11300A0F6000C940000EAE7F0E08081806480832D
S11300B080917A0086FDFCCF809179000895F894B0
S11300C09FEF94B987B18F6087B987B18F7C87B967
S11300D088B1806388B99AB9ECE6F0E080818063E6
S11300E08083E8E6F0E080818260808314BC83E052
S11300F085BD83E886BD81E080936E00ECE7F0E087
S1130100108280818766808387E880937A00789460
S1130110089525B1909112019F70892F90E0880F66
S1130120991F880F991F922F937C892B85B998B1B9
S113013080911201907F82958F70892B88B90895E0
S11301400E945F000E9489000E9453008093100166
S11301508091110181110DC015B8E0911001EF706B
S1130160F0E0E050FF4F80818BB985B1816085B9A3
S1130170E9CF15B8E0911001E295EF70F0E0E0509E
S1130180FF4F80818BB985B1826085B9DBCF1F9227
S11301900F920FB60F9211248F93349905C080915A
S11301A012018F5F80931201359905C0809112016D
S11301B08150809312018F910F900FBE0F901F906A
S11301C018951F920F920FB60F9211248F939F933D
S11301D081E090911101911180E0809311019F9130
S11301E08F910F900FBE0F901F901895F894FFCF2A
S11301F04079243019120278001008034621060EB3
S9030000FC
