S01400004C61626F7261746F72696F342E737265635E
S11300000C9434000C9446000C9446000C94460066
S11300100C947D000C9446000C9446000C9446000D
S11300200C9446000C9446000C9446000C94460034
S11300300C9446000C9446000C9446000C94460024
S11300400C9446000C9446000C9446000C94460014
S11300500C9446000C9446000C9446000C94460004
S11300600C9446000C94460011241FBECFEFD8E038
S1130070DEBFCDBF21E0A0E0B1E001C01D92A13000
S1130080B207E1F70E9478000C9497000C940000EA
S1130090F89484B18C6384B987B18F6087B987B1D0
S11300A08F7C87B988B1806388B9ECE6F0E0808101
S11300B080638083E8E6F0E08081826080837894C6
S11300C0089525B1909100019F70892F90E0880FC9
S11300D0991F880F991F922F937C892B85B998B10A
S11300E080910001907F82958F70892B88B9089543
S11300F00E9448000E946100FDCF1F920F920FB62C
S11301000F9211248F93349905C0809100018F5F61
S113011080930001359905C080910001815080933E
S113012000018F910F900FBE0F901F901895F894B7
S1050130FFCFFB
S9030000FC
