:100000000C9434000C9451000C9451000C94510049
:100010000C94C7000C9451000C9451000C945100A6
:100020000C9451000C9451000C9451000C9451000C
:100030000C9451000C9451000C9451000C945100FC
:100040000C94E1000C9451000C9451000C9451005C
:100050000C9451000C9451000C9451000C945100DC
:100060000C9451000C94510011241FBECFEFD8E026
:10007000DEBFCDBF11E0A0E0B1E0E0E0F2E002C001
:1000800005900D92A231B107D9F721E0A2E1B1E0CC
:1000900001C01D92A431B207E1F70E9494000C94B4
:1000A000FE000C940000EAE7F0E080818064808329
:1000B00080917A0086FDFCCF809179000895F894B4
:1000C0009FEF94B987B18F7C87B988B1806388B975
:1000D0009AB9ECE6F0E0808180638083E8E6F0E0A6
:1000E00080818260808314BC83E085BD83E886BD07
:1000F00081E080936E00ECE7F0E0108280818766FB
:10010000808387E880937A00789408959091130112
:1001100080911201981720F485B1886085B90895FF
:1001200085B1877F85B908950E945F000E945300C2
:100130008093120115B880911001813059F4E0913B
:100140001201EF70F0E0E050FF4F80818BB985B174
:10015000816085B980911001823061F4E0911201D3
:10016000E295EF70F0E0E050FF4F80818BB985B1F0
:10017000826085B980911001843031F4809113013F
:100180008BB985B1846085B90E948600CFCF1F925C
:100190000F920FB60F9211248F93349905C080915E
:1001A00013018F5F80931301359905C0809113016E
:1001B0008150809313018F910F900FBE0F901F906D
:1001C00018951F920F920FB60F9211248F93809162
:1001D0001001813021F482E08093100109C0823047
:1001E00021F484E08093100103C081E0809310012A
:1001F0008F910F900FBE0F901F901895F894FFCF1E
:100200004079243019120278001008034621060EA6
:020210000100EB
:00000001FF
